:060000000A128A110C280F
:10000800FE00030EF5000A08F6000A128A11EF280E
:100018000A128A110F28F701F80183120313A401A9
:10002800A50183010A128A11992941308312031309
:100038009F00831603139F01831603178801890104
:10004800BB28831603170814831603130514EE2818
:100058001F08C33904389F008316031788148316B2
:1000680003138514EE281F08C33908389F00831628
:1000780003170815831603130515EE281F08C3393F
:100088000C389F00831603178815831603138515EC
:10009800EE281F08C33910389F0083160317081667
:1000A800831603138516EE281F08C33914389F00DA
:1000B800831603178816831603130914EE281F08DE
:1000C800C33918389F0083160317081783160313BC
:1000D8008914EE281F08C3391C389F00831603179C
:1000E8008817831603130915EE281F08C33920380B
:1000F8009F00831603170914831603130615EE28A9
:100108001F08C33924389F008316031789148316E0
:1001180003138615EE281F08C33928389F00831655
:1001280003170915831603138614EE281F08C3390D
:100138002C389F0083160317891583160313061698
:10014800EE281F08C33930389F0083160317091695
:10015800831603130614EE281F08C33934389F008A
:10016800831603178916831603138616EE2883123F
:1001780003132108003A0319C228EE282008003A80
:1001880003192528013A03192C28033A031937289B
:10019800013A03194228073A03194D28013A03196D
:1001A8005828033A03196328013A03196E280F3AAD
:1001B80003197928013A03198428033A03198F2867
:1001C800013A03199A28073A0319A528013A03198D
:1001D800B028EE280800831203130C1FF428F52812
:1001E800FC280A128A11E9210A128A117008F700FC
:1001F800831203138C1D012902294D291412141B83
:10020800062907290B29941F0A290B2910291308E5
:10021800F80014139413141683160313941A15294B
:1002280016292F29141919291A292F29831203137A
:100238001308F8008C11141683160313141C2529AF
:100248002629202983120313130888005330F40049
:10025800F40B2C294D29941A322933294D29141DC0
:10026800362937294D29831203131308F8008316FA
:1002780003131410770883120313930014165330D2
:10028800F400F40B45298316031314184C294D293F
:100298004729831203138C1C5229532954298C1083
:1002A8000C138C1176088A00750E8300FE0E7E0EE4
:1002B80009006130831603138F00C0308B0046306D
:1002C8008C00831203138C01831603138101003001
:1002D80083120313A000A1000A128A1119200A121E
:1002E8008A1120300A128A11CD210A128A11831626
:1002F80003130715FA3092000C308312031397008A
:1003080095018C10073092008C1C8B298C29882928
:1003180083160313071186018801890183120313C9
:10032800850186018801890108000A128A115D2168
:100338000A128A11831203139F18A329A429B22928
:10034800073083120313A3007C30A200A20BAA2952
:10035800A30BAA290000831203139F14C930770244
:10036800031CB729B829C1297430A4000230A5009C
:100378009D309500171297129E297C30A4000030FA
:10038800A5001F309500171297129E290A128A118C
:100398000C2883120313A00020088316031393006C
:1003A80036308312031394008030831603139400AD
:1003B80001309100871507168B170B17831203134B
:1003C8008C11831603138C150800831203131E085F
:0E03D800F200F3017208F0007308F100080053
:08400000FF3FFF3FFF3FFF3FC0
:04400E00D620FF3F7A
:00000001FF
