:060000000A128A11F32F21
:10000800463083120313B1008030B0000030AF00D7
:100018000030AE003D300A128A1535230A128A11C3
:10002800760883120313CC007708CD004C08CD0066
:10003800CC013E300A128A1535230A128A11760835
:10004800831203134C04CE0077084D04CF004E08EA
:10005800A0004F08A1000030A11BFF30A200A300A0
:1000680001300A128A1573250A128A1183120313A2
:100078002308B5002208B4002108B3002008B20004
:100088000A128A152D260A128A11831203133108BF
:10009800CB003008CA002F08C9002E08C800080085
:1000A80083120313AB002130A600192925302C0632
:1000B80003195F2860286A282B0884002C088313FA
:1000C80080000130A3002308AB071929A7010130DC
:1000D800A007FF30200784000A128A150A200A1296
:1000E8008A11AC00A300A4012408003A03197D2852
:1000F80019292308003A03192929643A0319882879
:100108000D3A031988281929260884008313000842
:10011800A900840A0008AA000230A3002308A60741
:10012800AA1F97289828A1280330A3002308A7040A
:10013800A909AA09A90A0319AA0AAC01AC0A2C0838
:10014800A3002307013E84000A128A150A200A1216
:100158008A11A4000A128A150A200A128A11A50017
:1001680025082A02031DBA28240829020318BD28D5
:10017800BE28BF28C9280130A3002308AC070530D2
:100188002C06031DC828C928A328270803390319E2
:10019800CE28CF28D8282B0884002D308313800040
:1001A8000130A3002308AB072C08A80010290A3047
:1001B800F8000030F9002808A3002307013E840056
:1001C8000A128A150A200A128A11F0000A128A15E0
:1001D8000A200A128A11F1002A08F3002908F200FD
:1001E8000A128A15B6230A128A117108FB007008D0
:1001F800FA000A128A15BD220A128A117808303EBE
:1002080083120313AC002B0884002C08831380008E
:100218000130A3002308AB07FF30A3002308A80779
:10022800280A031D18291929DB280130A007FF30E7
:10023800200784000A128A150A200A128A11AC00C3
:100248002C08031D282929295A282B0884008313E0
:10025800800108008312031323088039A8002308AB
:10026800F9007907AE00A21F3A293B293C292E1430
:100278002E0803194029412950292E0A031D452912
:1002880046294E290030A3000030A2000030A1000A
:100298000030A000A21758290030A3000030A200A7
:1002A8000030A1000030A00027088039F900790843
:1002B800A8062708F9007907AD00A61F6429652953
:1002C80066292D142D0803196A296B297A292D0A04
:1002D800031D6F29702978290030A7000030A60077
:1002E8000030A5000030A400A61782290030A7001E
:1002F8000030A6000030A5000030A4002D08031926
:10030800862987298C292E08031D8B298C29952954
:100318000030A3000030A2000030A1000030A0008F
:10032800722C2008F00026080A128A15C9210A1220
:100338008A11710883120313B4007008B3003308DC
:10034800F900FA01FB01FC017C08AC007B08AB005A
:100358007A08AA007908A9003408F900FA01FB0113
:10036800FC017C08B2007B08B1007A08B00079086B
:10037800AF002108F00025080A128A15C9210A12BF
:100388008A11710883120313B4007008B30033088C
:10039800F900FA01FB01FC017908A9077A080311A1
:1003A8000318013E0319D929AA077B08031103186A
:1003B800013E0319E029AB077C0803110318013E2D
:1003C8000319E729AC073408F900FA01FB01FC011D
:1003D8007908AF077A0803110318013E0319F529B4
:1003E800B0077B0803110318013E0319FC29B10764
:1003F8007C0803110318013E0319032AB2072208D7
:10040800F00024080A128A15C9210A128A117108F3
:1004180083120313B4007008B3003308F900FA011B
:10042800FB01FC017908A9077A0803110318013EAA
:1004380003191F2AAA077B0803110318013E031991
:10044800262AAB077C0803110318013E03192D2A3D
:10045800AC073408F900FA01FB01FC017908AF0781
:100468007A0803110318013E03193B2AB0077B08D9
:1004780003110318013E0319422AB1077C0803112E
:100488000318013E0319492AB2070830F90003107E
:10049800A90DAA0DAB0DAC0DF90B4B2A2108F000E4
:1004A80024080A128A15C9210A128A1171088312AE
:1004B8000313B4007008B3003308F9003408FA00D5
:1004C800FB01FC017908A9077A0803110318013E0A
:1004D80003196F2AAA077B0803110318013E0319A1
:1004E800762AAB077C0803110318013E03197D2AFD
:1004F800AC072008F00025080A128A15C9210A123B
:100508008A11710883120313B4007008B30033080A
:10051800F9003408FA00FB01FC017908A9077A08F8
:1005280003110318013E03199A2AAA077B0803112D
:100538000318013E0319A12AAB077C08031103180D
:10054800013E0319A82AAC070830F9000310A90DC9
:10055800AA0DAB0DAC0DF90BAA2A2008F00024084F
:100568000A128A15C9210A128A1171088312031303
:10057800B4007008B3003308F9003408FA00FB012E
:10058800FC017908A9077A0803110318013E031929
:10059800CE2AAA077B0803110318013E0319D52A9E
:1005A800AB077C0803110318013E0319DC2AAC07CA
:1005B8002108F00026080A128A15C9210A128A1190
:1005C800710883120313B4007008B3003308F900EC
:1005D8003408FA00FB01FC017908AF077A08031117
:1005E8000318013E0319F92AB0077B080311031801
:1005F800013E0319002BB1077C0803110318013EC3
:100608000319072BB2072208F00025080A128A15D9
:10061800C9210A128A11710883120313B4007008E1
:10062800B3003308F9003408FA00FB01FC0179082B
:10063800AF077A0803110318013E0319242BB007EA
:100648007B0803110318013E03192B2BB1077C0803
:1006580003110318013E0319322BB2072208F000D8
:1006680026080A128A15C9210A128A1171088312EA
:100678000313B4007008B3003308F9003408FA0013
:10068800FB01FC0108300310F90DFA0DFB0DFC0D00
:10069800FF3E031D472B7908AF077A08031103189B
:1006A800013E0319582BB0077B0803110318013EBC
:1006B80003195F2BB1077C0803110318013E0319C6
:1006C800662BB2072908F9002A08FA002B08FB0054
:1006D8002C08FC0018300310FC0CFB0CFA0CF90C6D
:1006E800FF3E031D6F2B7908AF077A080311031823
:1006F800013E0319802BB0077B0803110318013E44
:100708000319872BB1077C0803110318013E03194D
:100718008E2BB2070830F9000310A90DAA0DAB0DF6
:10072800AC0DF90B902B2E082D07F900FA01FA0DE4
:100738007908823EB3007A080318013EFF3EB400F0
:10074800C22B0130F9000310AF0DB00DB10DB20D81
:10075800F90BA72BAC1FB12BB22BB32B2F140130E5
:10076800F9000310A90DAA0DAB0DAC0DF90BB52BB3
:10077800FF30B3070318B40AFF30B407B11FC52B05
:10078800C62BA52BAD01AC1FCA2BCB2BE72BFF30FB
:100798002905F900FF302A05FA00FF302B05FB0078
:1007A8007F302C05FC007C087B047A04790403194B
:1007B800DE2BDF2BE22BAD01AD0AE72B2F1CE52B3F
:1007C800E62BE72BDF2B2D080319EB2BEC2B1D2C2D
:1007D8000130AF07003003180130B00700300318AC
:1007E8000130B107003003180130B207321CFD2B6D
:1007F800FE2B1D2C2F08F9003008FA003108FB00E9
:100808003208FC000130FD007C0DFC0CFB0CFA0CDE
:10081800F90CFD0B082C7C08B2007B08B1007A08A3
:10082800B0007908AF000130B3070318B40A0030EC
:10083800B4073408803AFF0080307F02031D262C5D
:10084800FF303302031C292C2A2C352C7F308312CD
:100858000313B2008030B1000030B0000030AF00A8
:10086800662C831203133408803AFF0080307F021D
:10087800031D402C013033020318432C442C502C08
:10088800003083120313B2000030B1000030B00012
:100898000030AF00A801662C831203133308AE00A2
:1008A800FF30AF05FF30B0057F30B1050030B2052D
:1008B8002E1C5F2C602C612CB1172E08F900031038
:1008C800790CB2002808F9007908B2043208A300AC
:1008D8003108A2003008A1002F08A00008000A1261
:1008E8008A15A5210A128A110A128A1583220A1268
:1008F8008A110A128A15FA230A128A110A128A150B
:1009080014210A128A110230F40001300A128A15E1
:1009180085210A128A111330F3008030F4000A127C
:100928008A1574230A128A110730F40001300A125A
:100938008A1585210A128A111630F3008030F400D6
:100948000A128A1574230A128A110D30F400013034
:100958000A128A1585210A128A110B30F300803099
:10096800F4000A128A1574230A128A111A308312A3
:100978000313D100F730D000D00BC02CD10BC02C02
:10098800C52C031083120313051C03140318CD2C64
:10099800D12C831203130514D42C831203130510CE
:1009A8000A128A1545240A128A11831203134B0866
:1009B800D9004A08D8004908D7004808D6000A12C2
:1009C8008A1104200A128A11831203134B08D500D6
:1009D8004A08D4004908D3004808D20034308312AA
:1009E8000313D100F130D000D00BF82CD10BF82C28
:1009F800831203135908A7005808A6005708A50032
:100A08005608A4004230A300C830A2000030A1005C
:100A18000030A0000A128A112E210A128A118312AC
:100A280003132308B8002208B7002108B6002008DD
:100A3800B5000A128A15FB240A128A1183120313BD
:100A48003608E1003508E0005508A7005408A6005C
:100A58005308A5005208A4004230A300C830A200E1
:100A68000030A1000030A0000A128A112E210A12BB
:100A78008A11831203132308B8002208B70021083B
:100A8800B6002008B5000A128A15FB240A128A113A
:100A9800831203133608DF003508DE000A128A15B0
:100AA80023210A128A11C130F0000030F1000A1225
:100AB8008A153E210A128A110030F000F1000A124C
:100AC8008A151D220A128A11710883120313DD0088
:100AD8007008DC000A128A152C210A128A11343097
:100AE80083120313D100F130D000D00B792DD10B34
:100AF800792D0A128A1523210A128A112130F00051
:100B08000030F1000A128A153E210A128A110030BB
:100B1800F000F1000A128A151D220A128A117108C2
:100B280083120313DB007008DA000A128A152C21DD
:100B38000A128A11343083120313D100F130D00025
:100B4800D00BA42DD10BA42D0A128A1523210A1229
:100B58008A116030F0000030F1000A128A153E2137
:100B68000A128A11831203136108F1006008F00069
:100B78000A128A153E210A128A11831203135F088A
:100B8800F1005E08F0000A128A153E210A128A1145
:100B9800831203135D08F1005C08F0000A128A153D
:100BA8003E210A128A110A128A152C210A128A1168
:100BB800343083120313D100F130D000D00BE22D72
:100BC800D10BE22D831203135F08803AFF007F30B8
:100BD8007F02031DF12DD8305E020318F42DF52D88
:100BE800FC2D831203130814881008118811442E51
:100BF800831203135F08803AFF0080307F02031DD1
:100C0800072E29305E02031C0A2E0B2E122E831289
:100C180003130810881408118811442E8312031333
:100C28006108803AFF0080307F02031D1D2E31309D
:100C38006002031C202E212E282E83120313081075
:100C4800881008158811442E831203136108803A0E
:100C5800FF007F307F02031D332ED8306002031857
:100C6800362E372E3E2E83120313081088100811D3
:100C78008815442E83120313081088100811881150
:100C8800F401F40A02300A128A1585210A128A111F
:100C9800103083120313A0006108A2006008A100AD
:100CA80068300A128A1154200A128A118312031317
:100CB8006108803AFF0080307F02031D652E0130F5
:100CC8006002031C682E692E7F2E831203136108AD
:100CD800803AFF0080307F02031D742E0A306002C4
:100CE8000318772E782E7F2E831203136808E500E9
:100CF8003030E400FA2E831203136108803AFF00B3
:100D080080307F02031D8A2E01306002031C8D2E65
:100D18008E2EA42E831203136108803AFF008030C0
:100D28007F02031D992E6430600203189C2E9D2EAD
:100D3800A42E831203136908E5006808E400FA2E5C
:100D480083120313E11FA92EAA2ECC2E6108803A24
:100D5800FF007F307F02031DB32EF7306002031CB3
:100D6800B62EB72ECC2E831203136908E500303057
:100D7800E4002D300A128A1555210A128A11023010
:100D8800F40002300A128A1585210A128A11FA2EF5
:100D980083120313E11FD12ED22EF42E6108803A5C
:100DA800FF007F307F02031DDB2E9D306002031C95
:100DB800DE2EDF2EF42E831203136A08E50069087D
:100DC800E4002D300A128A1555210A128A110230C0
:100DD800F40002300A128A1585210A128A11FA2EA5
:100DE800303083120313E4003030E50030308312D2
:100DF8000313E2002E30E300E6016230F300003016
:100E0800F4000A128A1574230A128A110730F400B2
:100E180002300A128A1585210A128A1110308312AB
:100E28000313A0005F08A2005E08A10068300A1240
:100E38008A1154200A128A11831203135F08803A18
:100E4800FF0080307F02031D2B2F01305E02031C40
:100E58002E2F2F2F452F831203135F08803AFF0090
:100E680080307F02031D3A2F0A305E0203183D2F9F
:100E78003E2F452F831203136808E5003030E40045
:100E8800C02F831203135F08803AFF0080307F026F
:100E9800031D502F01305E02031C532F542F6A2F5D
:100EA800831203135F08803AFF0080307F02031D1E
:100EB8005F2F64305E020318622F632F6A2F83123C
:100EC80003136908E5006808E400C02F83120313C0
:100ED800DF1F6F2F702F922F5F08803AFF007F303F
:100EE8007F02031D792FF7305E02031C7C2F7D2FB4
:100EF800922F831203136908E5003030E4002D3087
:100F08000A128A1555210A128A110830F400023093
:100F18000A128A1585210A128A11C02F8312031317
:100F2800DF1F972F982FBA2F5F08803AFF007F3076
:100F38007F02031DA12F9D305E02031CA42FA52F45
:100F4800BA2F831203136A08E5006908E4002D30FC
:100F58000A128A1555210A128A110830F400023043
:100F68000A128A1585210A128A11C02F303083127D
:100F78000313E4003030E500303083120313E2003D
:100F88002E30E300E6016230F3000030F4000A126C
:100F98008A1574230A128A110D30F40002300A12DD
:100FA8008A1585210A128A11103083120313A000B2
:100FB8005D08A2005C08A10068300A128A1154205A
:100FC8000A128A116830F3000030F4000A128A15F8
:100FD80074230A128A11C52C0A128A110028831355
:100FE800523084006E300A128A151B210A128A11A7
:100FF80083010A128A11732CFF1B0A2883137F1896
:1010080083170008840A0319FF0A080008308A00B9
:101018000408840A82070034013400340A34003496
:1010280064340034E83403341034273444346934E5
:1010380073347434003425346434003441347834DF
:08104800003441347934003416
:1012280001300A128A156B210A128A150800640017
:101238008001840A04060319003404061C290A12D2
:101248008A1548210A128A158316031311140800F7
:101258000A128A1548210A128A15831603131115D2
:1012680008000A128A1548210A128A1583160313E0
:10127800911408000A128A1548210A128A15700862
:1012880083120313930008008316031314194D29BE
:101298004E29482911081F39031D53295429482963
:1012A8000800F20083120313081772080A128A153D
:1012B800F7220A128A158312031388171A30F100CD
:1012C800F10B642900008312031388130800F3004C
:1012D80083120313081373080A128A15F7220A12D5
:1012E8008A158312031388170B30F2006230F1005D
:1012F800F10B7C29F20B7C2900008312031388135D
:101308000800F5007503031D8A298B29952974089F
:101318007F3EF60076080A128A156B210A128A1592
:10132800A42902307506031D9A299B29A42974084B
:10133800BF3EF60076080A128A156B210A128A1532
:1013480008007130831603138F00003083120313D3
:10135800A3000130A2008630A100A030A0000A122C
:101368008A154B220A128A158316031788018901E8
:1013780083160313850186018801890183120313EB
:1013880085018601880189010800F800F401F5014A
:101398007008F200F3017208F6007308F700781C71
:1013A800D629D729DD297608F4070318F50A77081E
:1013B800F50701300310F60DF70DFF3E031DDE297A
:1013C8000310F80C7808031DEA29EB29D3297508BE
:1013D800F1007408F0000800F5000A128A152321AC
:1013E8000A128A15D030F0000030F1000A128A156E
:1013F8003E210A128A157508F300F4017308F000FB
:101408007408F1000A128A153E210A128A15720818
:10141800F300F4017308F0007408F1000A128A1549
:101428003E210A128A150A128A152C210A128A15D7
:1014380008000A128A1548210A128A15831603130E
:1014480091150A128A1548210A128A158312031364
:101458001308F200F3017208F4007308F5000A1289
:101468008A1548210A128A1570037104031D3D2A42
:101478003E2A422A831603139112452A8316031320
:10148800911611167508F1007408F000080028304C
:101498008312031394008316031391018312031319
:1014A8002008A4002108A5002208A6002308A700F8
:1014B80002300310A40DA50DA60DA70DFF3E031DB8
:1014C8005D2A2708F3002608F2002508F100240801
:1014D800F0000030F7007A30F6001230F5000030E6
:1014E800F4000A128A1595240A128A157008FF3E1C
:1014F800831603139300940187150716080080309C
:10150800F2006B300A128A15F0210A128A151A3075
:10151800F700F830F600F60B8F2AF70B8F2A000039
:10152800F2016B300A128A15F0210A128A151A3054
:10153800F700F830F600F60B9F2AF70B9F2A0000F9
:10154800F201F20A1A300A128A15F0210A128A15D3
:101558001A30F700F830F600F60BB02AF70BB02A6D
:101568000000F2011B300A128A15F0210A128A15AE
:101578000800780879040319C22AC32AF22AFD014F
:10158800FD0AD12A01300310F80DF90DFF3E031DA5
:10159800C72A0130FC007C08FD07F91FD42AD52A88
:1015A800C62A79087B02031DDB2A78087A02031C05
:1015B800DE2ADF2AE52A7808FA027908031CFB03E9
:1015C800FB0201300310F90CF80CFF3E031DE62A5C
:1015D8000130FD02031DF12AF22AD52A7B08F90001
:1015E8007A08F8000800F000701CFB2AFC2A002B7F
:1015F800831203130614032B831203130610F01C23
:10160800062B072B092B86140A2B8610701D0D2B11
:101618000E2B102B0615112B0611F01D142B152B54
:10162800172B8615182B8611701E1B2B1C2B1E2B97
:1016380006161F2B0612F01E222B232B252B86168F
:10164800262B8612701F292B2A2B2C2B06172D2BA5
:101658000613F01F302B312B332B8617342B8613B0
:101668000800FC000A128A1523210A128A15D030B4
:10167800F0000030F1000A128A153E210A128A157C
:101688007C08F800F9017808F0007908F1000A12DE
:101698008A153E210A128A150A128A1535210A125C
:1016A8008A15D130F0000030F1000A128A153E2167
:1016B8000A128A150030F000F1000A128A151D225C
:1016C8000A128A157108FB007008FA000A128A15B6
:1016D8002C210A128A157B08F7007A08F600080000
:1016E800F801F901992B78087307F6007408F500DA
:1016F8000318F50AF81F812BF5037508F70077081A
:1017080083120313FF00760884000A128A1500204A
:101718000A128A150A128A1555210A128A150130E9
:10172800F8070318F90A0030F90778087307F60074
:101738007408F5000318F50AF81FA32BF5037508BC
:10174800F700770883120313FF00760884000A1253
:101758008A1500200A128A15003A031DB42BB52BEE
:10176800772B0800F501F601700871040319BD2BE9
:10177800BE2BF52BF701F70ACC2B01300310F00D27
:10178800F10DFF3E031DC22B0130F4007408F7076A
:10179800F11FCF2BD02BC12B01300310F50DF60D07
:1017A800FF3E031DD12B71087302031DDD2B70084A
:1017B8007202031CE02BE12BE82B7008F20271087F
:1017C800031CF303F302751401300310F10CF00C41
:1017D800FF3E031DE92B0130F702031DF42BF52B07
:1017E800D02B7608F1007508F000080000300A12C6
:1017F8008A15F7220A128A153430F500F130F40000
:10180800F40B042CF50B042C092C03300A128A154E
:101818006B210A128A150D30F500FB30F400F40B29
:10182800132CF50B132C182C03300A128A156B2174
:101838000A128A151D30F5009130F400F40B222CA1
:10184800F50B222C03300A128A156B210A128A150D
:1018580038300A128A156B210A128A150C300A12BE
:101868008A156B210A128A1501300A128A156B2112
:101878000A128A1506300A128A156B210A128A156D
:101888000800463083120313B1008030B0000030E6
:10189800AF000030AE003B300A128A1535230A1219
:1018A8008A15760883120313CC007708CD004C08FC
:1018B800CD00CC013C300A128A1535230A128A154C
:1018C8007608831203134C04CE0077084D04CF002A
:1018D8004E08A0004F08A1000030A11BFF30A20055
:1018E800A30001300A128A1573250A128A15831279
:1018F80003132308B5002208B4002108B300200808
:10190800B2000A128A152D260A128A1583120313A9
:101918003108CB003008CA002F08C9002E08C800BB
:1019280008000030FC000030FB000030FA000030F6
:10193800F90073087204710470040319A42CA52C0F
:10194800F22CFD01FD0AB52C0130F8000310F00D52
:10195800F10DF20DF30DF80BAA2C0130F800780800
:10196800FD07F31FB82CB92CA82C0130F800031080
:10197800F90DFA0DFB0DFC0DF80BBB2C7308770263
:10198800031DD02C72087602031DD02C7108750235
:10199800031DD02C70087402031CD32CD42CE32C08
:1019A8007008F4027108031C710FF5027208031C19
:1019B800720FF6027308031C730FF70279140130D3
:1019C8000310F30CF20CF10CF00CFF3E031DE42C99
:1019D8000130FD02031DF12CF22CB92C7C08F30018
:1019E8007B08F2007A08F1007908F000080003107B
:1019F80083120313370D380DBE003E08031D052D55
:101A0800062D0F2D0030B8000030B7000030B600AA
:101A18000030B500722D3508B9003608BA0037080D
:101A2800BB003808BC001F300310BC0CBB0CBA0C40
:101A3800B90CFF3E031D182D3908BD00B717FF303C
:101A4800B505FF30B605FF30B7050030B80596304C
:101A5800BE02BE1F302D312D4B2D3E08803A973ED9
:101A68000318372D382D392D062D01300310B80CE9
:101A7800B70CB60CB50CFF3E031D3A2D0130B9006A
:101A88003908BE07031D492D4A2D392D622D2030F6
:101A98003E02031C502D512D5D2D062D0130B9003D
:101AA8000310B50DB60DB70DB80DB90B542D013097
:101AB800BE023E08031D612D622D522D3D080319FB
:101AC800662D672D722DB509B609B709B809B50A8B
:101AD8000319B60A0319B70A0319B80A08008312CA
:101AE8000313A800280803197A2D7B2D8F2DA31F17
:101AF8007E2D7F2D8F2D2009AA002109AB002209F8
:101B0800AC002309AD00AA0A0319AB0A0319AC0AF1
:101B18000319AD0A972D2308AD002208AC0021084F
:101B2800AB002008AA002308220421042004031D76
:101B38009E2D9F2DA82D0030A3000030A20000305C
:101B4800A1000030A0002C2E9630A900B82D01303D
:101B5800A4002408A90701300310AD0CAC0CAB0C91
:101B6800AA0CFF3E031DB02DFE302D05031DBD2D13
:101B7800BE2DAB2DDA2D0130A4002408A9070130B1
:101B8800AA07003003180130AB07003003180130F2
:101B9800AC07003003180130AD0701300310AD0C5D
:101BA800AC0CAB0CAA0CFF3E031DD22DFF302D054B
:101BB800031DDF2DE02DBF2DEC2D0130A9020130D2
:101BC800A4000310AA0DAB0DAC0DAD0DA40BE52DB3
:101BD800AC1BEF2DF02DF62D023029020318F52D40
:101BE800F62DE12D2918F92DFA2D022EFF30AA0520
:101BF800FF30AB057F30AC05FF30AD050310A90CF5
:101C08002908A400A501A601A70118300310A40DF6
:101C1800A50DA60DA70DFF3E031D0A2E2408AA0434
:101C28002508AB042608AC042708AD0428080319C6
:101C38001E2E1F2E242EA31F222E232E242EAD1738
:101C48002D08A3002C08A2002B08A1002A08A00038
:101C580008008312031335088039BF003508B60021
:101C68003607C600B41F392E3A2E3B2E46144608B6
:101C780003193F2E402E502E460A031D442E452E92
:101C88004D2E0030B5000030B4000030B3000030F5
:101C9800B200B417B501582E0030B5000030B400BA
:101CA8000030B3000030B20031088039B600360881
:101CB800BF063108B6003607C700B01F642E652E70
:101CC800662E4714470803196A2E6B2E7B2E470A87
:101CD800031D6F2E702E782E0030B1000030B0003A
:101CE8000030AF000030AE00B017B101832E0030D5
:101CF800B1000030B0000030AF000030AE00310855
:101D080030042F042E04031D8A2E8B2EA42E00309F
:101D1800B5000030B4000030B3000030B2008030AD
:101D2800B4047F30B5043F08B6003608B50435085A
:101D3800B1003408B0003308AF003208AE00FF2FFE
:101D48004608031DA82EA92EB22E0030B10000307F
:101D5800B0000030AF000030AE00FF2F4608B600DC
:101D6800B7013708B90047083602B800031CB903A1
:101D780038087F3EC00039080318013E003EC10004
:101D88003508BE003408BD003308BC003208BB006B
:101D98000030B5000030B4000030B3000030B200AD
:101DA8000030C5000030C4000030C3000030C2005D
:101DB800C701282F47080319E22EE32E032F01300D
:101DC800B6000310BB0DBC0DBD0DBE0DB60BE52E48
:101DD8000130B6000310B20DB30DB40DB50DB60B3E
:101DE800EE2EC51FF82EF92EFA2E32140130B60049
:101DF8000310C20DC30DC40DC50DB60BFC2E310862
:101E08003E02031D112F30083D02031D112F2F081C
:101E18003C02031D112F2E083B02031C142F152F03
:101E2800242F45172E08BB022F08031C2F0FBC02B6
:101E38003008031C300FBD023108031C310FBE02ED
:101E48000130B6003608C7071A304702031C2D2F89
:101E58002E2FDE2E3E083D043C043B040319352F8B
:101E6800362F552F4214552F0130B6000310B20DEE
:101E7800B30DB40DB50DB60B3A2FC51F442F452F22
:101E8800462F32140130B6000310C20DC30DC40D25
:101E9800C50DB60B482FFF30C0070318C10AFF3025
:101EA800C107B41F582F592F382FC701C51F5D2FE1
:101EB8005E2F7A2FFF304205B600FF304305B7008A
:101EC800FF304405B8007F304505B90039083804AB
:101ED800370436040319712F722F752FC701C70AEB
:101EE8007A2F321C782F792F7A2F722F47080319EF
:101EF8007E2F7F2FB02F0130B2070030031801303A
:101F0800B307003003180130B4070030031801305C
:101F1800B507351C902F912FB02F3208B600330823
:101F2800B7003408B8003508B9000130BA00390DD7
:101F3800B90CB80CB70CB60CBA0B9B2F3908B50006
:101F48003808B4003708B3003608B2000130C007BB
:101F58000318C10A0030C1074108803AFF008030E9
:101F68007F02031DB92FFF304002031CBC2FBD2F79
:101F7800CB2FFF3083120313C0000030C1000030A4
:101F8800B5000030B4000030B3000030B200831256
:101F980003134108803AFF0080307F02031DD62FCB
:101FA800013040020318D92FDA2FE72F83120313C9
:101FB800C001C1010030B5000030B4000030B300EA
:101FC8000030B200BF01831203134008C600461C4C
:101FD800EE2FEF2FF12FB417F52F7F30B60036080C
:101FE800B4054608B6000310360CB5003F08B60025
:081FF8003608B5049B2E080019
:08400000FF3FFF3FFF3FFF3FC0
:04400E00F620FF3F5A
:00000001FF
